{
  "_format": "hh-sol-artifact-1",
  "contractName": "ResearchFunding",
  "sourceName": "contracts/ResearchFunding.sol",
  "abi": [
    {
      "inputs": [
        {
          "internalType": "uint256",
          "name": "index",
          "type": "uint256"
        }
      ],
      "name": "fundResearch",
      "outputs": [],
      "stateMutability": "payable",
      "type": "function"
    },
    {
      "inputs": [
        {
          "internalType": "uint256",
          "name": "",
          "type": "uint256"
        }
      ],
      "name": "researchPapers",
      "outputs": [
        {
          "internalType": "address",
          "name": "author",
          "type": "address"
        },
        {
          "internalType": "string",
          "name": "title",
          "type": "string"
        },
        {
          "internalType": "uint256",
          "name": "fundingReceived",
          "type": "uint256"
        }
      ],
      "stateMutability": "view",
      "type": "function"
    },
    {
      "inputs": [
        {
          "internalType": "string",
          "name": "_title",
          "type": "string"
        }
      ],
      "name": "submitResearch",
      "outputs": [],
      "stateMutability": "nonpayable",
      "type": "function"
    }
  ],
  "bytecode": "0x608060405234801561001057600080fd5b50610a0f806100206000396000f3fe6080604052600436106100345760003560e01c80636f864a6214610039578063867eccd014610078578063b990432d14610094575b600080fd5b34801561004557600080fd5b50610060600480360381019061005b9190610334565b6100bd565b60405161006f93929190610441565b60405180910390f35b610092600480360381019061008d9190610334565b61019f565b005b3480156100a057600080fd5b506100bb60048036038101906100b691906105b4565b610221565b005b600081815481106100cd57600080fd5b90600052602060002090600302016000915090508060000160009054906101000a900473ffffffffffffffffffffffffffffffffffffffff16908060010180546101169061062c565b80601f01602080910402602001604051908101604052809291908181526020018280546101429061062c565b801561018f5780601f106101645761010080835404028352916020019161018f565b820191906000526020600020905b81548152906001019060200180831161017257829003601f168201915b5050505050908060020154905083565b600034116101e2576040517f08c379a00000000000000000000000000000000000000000000000000000000081526004016101d9906106a9565b60405180910390fd5b34600082815481106101f7576101f66106c9565b5b906000526020600020906003020160020160008282546102179190610727565b9250508190555050565b600060405180606001604052803373ffffffffffffffffffffffffffffffffffffffff1681526020018381526020016000815250908060018154018082558091505060019003906000526020600020906003020160009091909190915060008201518160000160006101000a81548173ffffffffffffffffffffffffffffffffffffffff021916908373ffffffffffffffffffffffffffffffffffffffff16021790555060208201518160010190816102da9190610907565b5060408201518160020155505050565b6000604051905090565b600080fd5b600080fd5b6000819050919050565b610311816102fe565b811461031c57600080fd5b50565b60008135905061032e81610308565b92915050565b60006020828403121561034a576103496102f4565b5b60006103588482850161031f565b91505092915050565b600073ffffffffffffffffffffffffffffffffffffffff82169050919050565b600061038c82610361565b9050919050565b61039c81610381565b82525050565b600081519050919050565b600082825260208201905092915050565b60005b838110156103dc5780820151818401526020810190506103c1565b60008484015250505050565b6000601f19601f8301169050919050565b6000610404826103a2565b61040e81856103ad565b935061041e8185602086016103be565b610427816103e8565b840191505092915050565b61043b816102fe565b82525050565b60006060820190506104566000830186610393565b818103602083015261046881856103f9565b90506104776040830184610432565b949350505050565b600080fd5b600080fd5b7f4e487b7100000000000000000000000000000000000000000000000000000000600052604160045260246000fd5b6104c1826103e8565b810181811067ffffffffffffffff821117156104e0576104df610489565b5b80604052505050565b60006104f36102ea565b90506104ff82826104b8565b919050565b600067ffffffffffffffff82111561051f5761051e610489565b5b610528826103e8565b9050602081019050919050565b82818337600083830152505050565b600061055761055284610504565b6104e9565b90508281526020810184848401111561057357610572610484565b5b61057e848285610535565b509392505050565b600082601f83011261059b5761059a61047f565b5b81356105ab848260208601610544565b91505092915050565b6000602082840312156105ca576105c96102f4565b5b600082013567ffffffffffffffff8111156105e8576105e76102f9565b5b6105f484828501610586565b91505092915050565b7f4e487b7100000000000000000000000000000000000000000000000000000000600052602260045260246000fd5b6000600282049050600182168061064457607f821691505b602082108103610657576106566105fd565b5b50919050565b7f46756e64696e67206d7573742062652067726561746572207468616e20300000600082015250565b6000610693601e836103ad565b915061069e8261065d565b602082019050919050565b600060208201905081810360008301526106c281610686565b9050919050565b7f4e487b7100000000000000000000000000000000000000000000000000000000600052603260045260246000fd5b7f4e487b7100000000000000000000000000000000000000000000000000000000600052601160045260246000fd5b6000610732826102fe565b915061073d836102fe565b9250828201905080821115610755576107546106f8565b5b92915050565b60008190508160005260206000209050919050565b60006020601f8301049050919050565b600082821b905092915050565b6000600883026107bd7fffffffffffffffffffffffffffffffffffffffffffffffffffffffffffffffff82610780565b6107c78683610780565b95508019841693508086168417925050509392505050565b6000819050919050565b60006108046107ff6107fa846102fe565b6107df565b6102fe565b9050919050565b6000819050919050565b61081e836107e9565b61083261082a8261080b565b84845461078d565b825550505050565b600090565b61084761083a565b610852818484610815565b505050565b5b818110156108765761086b60008261083f565b600181019050610858565b5050565b601f8211156108bb5761088c8161075b565b61089584610770565b810160208510156108a4578190505b6108b86108b085610770565b830182610857565b50505b505050565b600082821c905092915050565b60006108de600019846008026108c0565b1980831691505092915050565b60006108f783836108cd565b9150826002028217905092915050565b610910826103a2565b67ffffffffffffffff81111561092957610928610489565b5b610933825461062c565b61093e82828561087a565b600060209050601f831160018114610971576000841561095f578287015190505b61096985826108eb565b8655506109d1565b601f19841661097f8661075b565b60005b828110156109a757848901518255600182019150602085019450602081019050610982565b868310156109c457848901516109c0601f8916826108cd565b8355505b6001600288020188555050505b50505050505056fea2646970667358221220187b051ea79b1c1fe5aecb3fba147057403a0c293b0aeb5068f6db4ba589816364736f6c63430008140033",
  "linkReferences": {},
  "deployedLinkReferences": {}
}